{
  "_format": "hh-sol-artifact-1",
  "contractName": "BookStore",
  "sourceName": "contracts/BookStore.sol",
  "abi": [
    {
      "inputs": [],
      "stateMutability": "nonpayable",
      "type": "constructor"
    },
    {
      "anonymous": false,
      "inputs": [
        {
          "indexed": false,
          "internalType": "uint256",
          "name": "bookId",
          "type": "uint256"
        }
      ],
      "name": "BookAdded",
      "type": "event"
    },
    {
      "anonymous": false,
      "inputs": [
        {
          "indexed": false,
          "internalType": "uint256",
          "name": "bookId",
          "type": "uint256"
        },
        {
          "indexed": false,
          "internalType": "uint256",
          "name": "quantity",
          "type": "uint256"
        }
      ],
      "name": "BookPurchased",
      "type": "event"
    },
    {
      "inputs": [
        {
          "internalType": "string",
          "name": "_title",
          "type": "string"
        },
        {
          "internalType": "string",
          "name": "_author",
          "type": "string"
        },
        {
          "internalType": "uint256",
          "name": "_price",
          "type": "uint256"
        },
        {
          "internalType": "uint256",
          "name": "_stock",
          "type": "uint256"
        }
      ],
      "name": "addBook",
      "outputs": [],
      "stateMutability": "nonpayable",
      "type": "function"
    },
    {
      "inputs": [],
      "name": "bookIdCounter",
      "outputs": [
        {
          "internalType": "uint256",
          "name": "",
          "type": "uint256"
        }
      ],
      "stateMutability": "view",
      "type": "function"
    },
    {
      "inputs": [
        {
          "internalType": "uint256",
          "name": "",
          "type": "uint256"
        }
      ],
      "name": "books",
      "outputs": [
        {
          "internalType": "uint256",
          "name": "id",
          "type": "uint256"
        },
        {
          "internalType": "string",
          "name": "title",
          "type": "string"
        },
        {
          "internalType": "string",
          "name": "author",
          "type": "string"
        },
        {
          "internalType": "uint256",
          "name": "price",
          "type": "uint256"
        },
        {
          "internalType": "uint256",
          "name": "stock",
          "type": "uint256"
        }
      ],
      "stateMutability": "view",
      "type": "function"
    },
    {
      "inputs": [
        {
          "internalType": "uint256",
          "name": "_bookId",
          "type": "uint256"
        }
      ],
      "name": "getBook",
      "outputs": [
        {
          "internalType": "uint256",
          "name": "",
          "type": "uint256"
        },
        {
          "internalType": "string",
          "name": "",
          "type": "string"
        },
        {
          "internalType": "string",
          "name": "",
          "type": "string"
        },
        {
          "internalType": "uint256",
          "name": "",
          "type": "uint256"
        },
        {
          "internalType": "uint256",
          "name": "",
          "type": "uint256"
        }
      ],
      "stateMutability": "view",
      "type": "function"
    },
    {
      "inputs": [],
      "name": "owner",
      "outputs": [
        {
          "internalType": "address",
          "name": "",
          "type": "address"
        }
      ],
      "stateMutability": "view",
      "type": "function"
    },
    {
      "inputs": [
        {
          "internalType": "uint256",
          "name": "_bookId",
          "type": "uint256"
        },
        {
          "internalType": "uint256",
          "name": "_quantity",
          "type": "uint256"
        }
      ],
      "name": "purchaseBook",
      "outputs": [],
      "stateMutability": "payable",
      "type": "function"
    }
  ],
  "bytecode": "0x608060405234801561001057600080fd5b50336000806101000a81548173ffffffffffffffffffffffffffffffffffffffff021916908373ffffffffffffffffffffffffffffffffffffffff1602179055506000600181905550611317806100686000396000f3fe6080604052600436106100555760003560e01c80630eed433b1461005a57806365b7bd251461007657806368744046146100a15780638da5cb5b146100e2578063d4c6758b1461010d578063e0ff5b8b14610136575b600080fd5b610074600480360381019061006f91906108f3565b610177565b005b34801561008257600080fd5b5061008b6103d7565b6040516100989190610942565b60405180910390f35b3480156100ad57600080fd5b506100c860048036038101906100c3919061095d565b6103dd565b6040516100d9959493929190610a1a565b60405180910390f35b3480156100ee57600080fd5b506100f7610523565b6040516101049190610abc565b60405180910390f35b34801561011957600080fd5b50610134600480360381019061012f9190610c0c565b610547565b005b34801561014257600080fd5b5061015d6004803603810190610158919061095d565b6106b7565b60405161016e959493929190610a1a565b60405180910390f35b600081116101ba576040517f08c379a00000000000000000000000000000000000000000000000000000000081526004016101b190610cf7565b60405180910390fd5b6000600260008481526020019081526020016000206000015403610213576040517f08c379a000000000000000000000000000000000000000000000000000000000815260040161020a90610d63565b60405180910390fd5b806002600084815260200190815260200160002060040154101561026c576040517f08c379a000000000000000000000000000000000000000000000000000000000815260040161026390610dcf565b60405180910390fd5b80600260008481526020019081526020016000206003015461028e9190610e1e565b3410156102d0576040517f08c379a00000000000000000000000000000000000000000000000000000000081526004016102c790610eac565b60405180910390fd5b806002600084815260200190815260200160002060040160008282546102f69190610ecc565b925050819055507fb3853ff9ca5a150d73fa83fd4b325938c9cd0cf0921b0f29cf20fe37c38008ed828260405161032e929190610f00565b60405180910390a18060026000848152602001908152602001600020600301546103589190610e1e565b3411156103d3573373ffffffffffffffffffffffffffffffffffffffff166108fc82600260008681526020019081526020016000206003015461039b9190610e1e565b346103a69190610ecc565b9081150290604051600060405180830381858888f193505050501580156103d1573d6000803e3d6000fd5b505b5050565b60015481565b600260205280600052604060002060009150905080600001549080600101805461040690610f58565b80601f016020809104026020016040519081016040528092919081815260200182805461043290610f58565b801561047f5780601f106104545761010080835404028352916020019161047f565b820191906000526020600020905b81548152906001019060200180831161046257829003601f168201915b50505050509080600201805461049490610f58565b80601f01602080910402602001604051908101604052809291908181526020018280546104c090610f58565b801561050d5780601f106104e25761010080835404028352916020019161050d565b820191906000526020600020905b8154815290600101906020018083116104f057829003601f168201915b5050505050908060030154908060040154905085565b60008054906101000a900473ffffffffffffffffffffffffffffffffffffffff1681565b60008054906101000a900473ffffffffffffffffffffffffffffffffffffffff1673ffffffffffffffffffffffffffffffffffffffff163373ffffffffffffffffffffffffffffffffffffffff16146105d5576040517f08c379a00000000000000000000000000000000000000000000000000000000081526004016105cc90610ffb565b60405180910390fd5b600160008154809291906105e89061101b565b91905055506040518060a0016040528060015481526020018581526020018481526020018381526020018281525060026000600154815260200190815260200160002060008201518160000155602082015181600101908161064a919061120f565b506040820151816002019081610660919061120f565b5060608201518160030155608082015181600401559050507ff28b4f7e52e9859ee83d34999feac48c8198ba0fc5b0d867ae01064191e7484c6001546040516106a99190610942565b60405180910390a150505050565b60006060806000806000600260008881526020019081526020016000206000015403610718576040517f08c379a000000000000000000000000000000000000000000000000000000000815260040161070f90610d63565b60405180910390fd5b6000600260008881526020019081526020016000206040518060a00160405290816000820154815260200160018201805461075290610f58565b80601f016020809104026020016040519081016040528092919081815260200182805461077e90610f58565b80156107cb5780601f106107a0576101008083540402835291602001916107cb565b820191906000526020600020905b8154815290600101906020018083116107ae57829003601f168201915b505050505081526020016002820180546107e490610f58565b80601f016020809104026020016040519081016040528092919081815260200182805461081090610f58565b801561085d5780601f106108325761010080835404028352916020019161085d565b820191906000526020600020905b81548152906001019060200180831161084057829003601f168201915b5050505050815260200160038201548152602001600482015481525050905080600001518160200151826040015183606001518460800151955095509550955095505091939590929450565b6000604051905090565b600080fd5b600080fd5b6000819050919050565b6108d0816108bd565b81146108db57600080fd5b50565b6000813590506108ed816108c7565b92915050565b6000806040838503121561090a576109096108b3565b5b6000610918858286016108de565b9250506020610929858286016108de565b9150509250929050565b61093c816108bd565b82525050565b60006020820190506109576000830184610933565b92915050565b600060208284031215610973576109726108b3565b5b6000610981848285016108de565b91505092915050565b600081519050919050565b600082825260208201905092915050565b60005b838110156109c45780820151818401526020810190506109a9565b60008484015250505050565b6000601f19601f8301169050919050565b60006109ec8261098a565b6109f68185610995565b9350610a068185602086016109a6565b610a0f816109d0565b840191505092915050565b600060a082019050610a2f6000830188610933565b8181036020830152610a4181876109e1565b90508181036040830152610a5581866109e1565b9050610a646060830185610933565b610a716080830184610933565b9695505050505050565b600073ffffffffffffffffffffffffffffffffffffffff82169050919050565b6000610aa682610a7b565b9050919050565b610ab681610a9b565b82525050565b6000602082019050610ad16000830184610aad565b92915050565b600080fd5b600080fd5b7f4e487b7100000000000000000000000000000000000000000000000000000000600052604160045260246000fd5b610b19826109d0565b810181811067ffffffffffffffff82111715610b3857610b37610ae1565b5b80604052505050565b6000610b4b6108a9565b9050610b578282610b10565b919050565b600067ffffffffffffffff821115610b7757610b76610ae1565b5b610b80826109d0565b9050602081019050919050565b82818337600083830152505050565b6000610baf610baa84610b5c565b610b41565b905082815260208101848484011115610bcb57610bca610adc565b5b610bd6848285610b8d565b509392505050565b600082601f830112610bf357610bf2610ad7565b5b8135610c03848260208601610b9c565b91505092915050565b60008060008060808587031215610c2657610c256108b3565b5b600085013567ffffffffffffffff811115610c4457610c436108b8565b5b610c5087828801610bde565b945050602085013567ffffffffffffffff811115610c7157610c706108b8565b5b610c7d87828801610bde565b9350506040610c8e878288016108de565b9250506060610c9f878288016108de565b91505092959194509250565b7f5175616e74697479206d7573742062652067726561746572207468616e203000600082015250565b6000610ce1601f83610995565b9150610cec82610cab565b602082019050919050565b60006020820190508181036000830152610d1081610cd4565b9050919050565b7f496e76616c696420626f6f6b2049440000000000000000000000000000000000600082015250565b6000610d4d600f83610995565b9150610d5882610d17565b602082019050919050565b60006020820190508181036000830152610d7c81610d40565b9050919050565b7f496e73756666696369656e742073746f636b0000000000000000000000000000600082015250565b6000610db9601283610995565b9150610dc482610d83565b602082019050919050565b60006020820190508181036000830152610de881610dac565b9050919050565b7f4e487b7100000000000000000000000000000000000000000000000000000000600052601160045260246000fd5b6000610e29826108bd565b9150610e34836108bd565b9250828202610e42816108bd565b91508282048414831517610e5957610e58610def565b5b5092915050565b7f496e73756666696369656e742066756e64730000000000000000000000000000600082015250565b6000610e96601283610995565b9150610ea182610e60565b602082019050919050565b60006020820190508181036000830152610ec581610e89565b9050919050565b6000610ed7826108bd565b9150610ee2836108bd565b9250828203905081811115610efa57610ef9610def565b5b92915050565b6000604082019050610f156000830185610933565b610f226020830184610933565b9392505050565b7f4e487b7100000000000000000000000000000000000000000000000000000000600052602260045260246000fd5b60006002820490506001821680610f7057607f821691505b602082108103610f8357610f82610f29565b5b50919050565b7f4f6e6c7920746865206f776e65722063616e20706572666f726d20746869732060008201527f616374696f6e0000000000000000000000000000000000000000000000000000602082015250565b6000610fe5602683610995565b9150610ff082610f89565b604082019050919050565b6000602082019050818103600083015261101481610fd8565b9050919050565b6000611026826108bd565b91507fffffffffffffffffffffffffffffffffffffffffffffffffffffffffffffffff820361105857611057610def565b5b600182019050919050565b60008190508160005260206000209050919050565b60006020601f8301049050919050565b600082821b905092915050565b6000600883026110c57fffffffffffffffffffffffffffffffffffffffffffffffffffffffffffffffff82611088565b6110cf8683611088565b95508019841693508086168417925050509392505050565b6000819050919050565b600061110c611107611102846108bd565b6110e7565b6108bd565b9050919050565b6000819050919050565b611126836110f1565b61113a61113282611113565b848454611095565b825550505050565b600090565b61114f611142565b61115a81848461111d565b505050565b5b8181101561117e57611173600082611147565b600181019050611160565b5050565b601f8211156111c35761119481611063565b61119d84611078565b810160208510156111ac578190505b6111c06111b885611078565b83018261115f565b50505b505050565b600082821c905092915050565b60006111e6600019846008026111c8565b1980831691505092915050565b60006111ff83836111d5565b9150826002028217905092915050565b6112188261098a565b67ffffffffffffffff81111561123157611230610ae1565b5b61123b8254610f58565b611246828285611182565b600060209050601f8311600181146112795760008415611267578287015190505b61127185826111f3565b8655506112d9565b601f19841661128786611063565b60005b828110156112af5784890151825560018201915060208501945060208101905061128a565b868310156112cc57848901516112c8601f8916826111d5565b8355505b6001600288020188555050505b50505050505056fea2646970667358221220510ee0d4495b6fea92217fd6c9526d10fec879c124ab1353be1ee5dbfbd39de464736f6c63430008130033",
  "linkReferences": {},
  "deployedLinkReferences": {}
}